:1000000080310B2808000800803120007F08F000B4
:100010007008FF0009008A31662A16283D008E010B
:1000200092012000E80112115F295F292000E808F1
:10003000031D1B281C282F283D008E01920116301D
:1000400091009F3097007B30920027288E158E1DDF
:100050002A282B2826282000E801E80A2F286808EB
:10006000013A031D3428352845283D008E1A3928C9
:100070003A284528900192011214121602302000ED
:10008000E3006308E800452845283D00101D492885
:100090004A285828121D4D284E285828FB30200089
:1000A000E30063083D0090058A31A722803158287B
:1000B0003D008E1C5C285D286028200012115F29FD
:1000C000101C632864287628121C67286828762864
:1000D0008331F823803104302000E3006308E80016
:1000E000FE30E30063083D0090057628101E792855
:1000F0007A288828121E7D287E2888288A31C022E6
:100100008031EF302000E30063083D00900588282F
:10011000101F8B288C28B628121F8F2890289E2805
:1001200073302000D3000030D400D5010130D60058
:100130000030D7008B31D32380319E28BF30200080
:10014000E30063083D00900521004108031DA92834
:10015000AC280130C102AC28C108031DB028B12869
:10016000B6288D3123258031B628B6283D00901E53
:10017000BA28BB28C328921EBE28BF28C3288A31AC
:10018000FC228031C3283D00901CC728C828DC28E9
:10019000921CCB28CC28DC28FF302000D3007F30F5
:1001A000D400D5010130D6000030D7008B31D323E5
:1001B00080313D009301DC280430200068020318E0
:1001C000E228E328E52812115F293D00921DE92865
:1001D000EA285D292000E50104306502031CF128AE
:1001E000F228F4285D295D293D00901DF828F928A2
:1001F0005D290F082000E3006308EF006F0CE300A7
:10020000E30C630C0F39E40064082100C300F730ED
:100210002000E30063083D00900520006F191129BC
:100220001229232921004308B53E860087010108D1
:1002300001392000E3000130E30601086306FE39BE
:1002400063068100342921004308B33E86008701FC
:10025000010801392000E3000130E30601086306CC
:10026000FE396306810034292100C308031D3929A2
:100270003A293E298E31F6268031512972302000EC
:10028000D3000030D4006F30E3006308D5000030A5
:10029000D6000030D7008B31D3238031512951292A
:1002A0005D2901302000E3006308E50704306502A2
:1002B000031C5B295C29F4285D2920001211080029
:1002C00020004208013A031D662967297D2940085C
:1002D0001F390038031D6D296E297D29EC1741084F
:1002E000033A031D7429752979292100BA01BA0A34
:1002F0007D292100BA017D297D2920004208031DA6
:1003000082298329972A40081F39023A031D892927
:100310008A29972A44080F39003A0319902991290C
:10032000972A44080F39D800023058020318992937
:100330009A29972A6808203A031D9F29A029972AFD
:10034000EC17C41BA429A529B82944080F39B73EC6
:10035000860087010108D8005808DD0044080F39DD
:10036000B53E860087010108D8005808DC00CB297B
:1003700044080F39663E860087010108D8005808F6
:10038000DD0044080F39B33E860087010108D8001C
:100390005808DC00CB295C18CE29CF29D429FB30A2
:1003A000D8005808DD05D5295D15C41BD829D929E1
:1003B000E3295D08D80044080F39B73E860087015D
:1003C00058088100ED295D08D80044080F39663EC1
:1003D0008600870158088100ED294108033A031D72
:1003E000F229F329142A5D0886008701811FF92963
:1003F000FA290C2AC41BFD29FE29052A44080F39B5
:10040000B53E8600870181140C2A44080F39B33E9B
:100410008600870181140C2A8430D8005D0886008C
:10042000870158088104972A0430D8005808DD064F
:100430005D0886008701811F1E2A1F2A3A2A7F3005
:10044000D8005D0886008701580881055D08860090
:10045000870101170530D3000030D4005D08D800B3
:100460005808D5000130D6000030D7008B31D32397
:100470008131402A20005D08860087010117402A4B
:1004800004302000D8005808DD06DC18482A492A24
:10049000502A5D0886008701811F4F2A502A782A3A
:1004A000C41B532A542A5B2A44080F39B53E8600E0
:1004B00087018110612A44080F39B33E8600870105
:1004C00081103B30D8005D088600870158088105FF
:1004D0000530D3000030D4005D08D8005808D5009E
:1004E0000130D6000030D7008B31D3238131812AEF
:1004F0003B302000D8005D08860087015808810540
:10050000812A200044080F39983ED800D9010E30C6
:10051000D93D5808DA005908DB00FE30D8005A08E7
:1005200086005B08870058088105972A972A0800EB
:100530002000400E890C0339003A0319A02AA12A91
:10054000EA2AF52AF52AEA2AEC170830DE005E08C6
:10055000E800F52A8E3179268231F52A8731332752
:100560008231F52AC7302000EA000030EB006C141D
:10057000ED01ED0AEC17F52A8C31C5248231F52AFC
:10058000C12A813160218231F52A20004408C83E09
:10059000EA000030EB006C14ED01ED0AEC17F52ACF
:1005A000EC174208DE004408C83E860087015E085A
:1005B0008100F52A0230D3000030D400D50100308C
:1005C000D6000030D7008B31D3238231F52AF52AAB
:1005D000F52AF52A2000410884000D300402031892
:1005E000F52A88310435003E820008001E30FB00E9
:1005F0007B08F80001308B31242382310800080089
:100600000034F4348334573483348B348334B93432
:1006100083340534013409340534A13401341534EC
:100620000034253401343534003445340134753414
:10063000013495340D340534093419340134293426
:100640000D3481340234953403348134013405345B
:1006500001342534073446343B34013475340434D2
:1006600095340134653414340934393481344234D6
:100670006534003495340134813401342634FF3438
:1006800000344634FF340034093430340934313412
:1006900009343234093433340934343409343534C8
:1006A000753408349534063481340234C03434341B
:1006B00003344D340034693400346334003472340C
:1006C00000346F34003463340034683400346934E7
:1006D0000034703400342034003454340034653431
:1006E000003463340034683400346E3400346F34C2
:1006F00000346C3400346F3400346734003479349F
:10070000003420340034493400346E34003463340F
:1007100000342E3400342E3403344A3400346F3421
:100720000034793400347334003474340034693460
:100730000034633400346B340034203400344434E7
:100740000034653400346D3400346F3400340034C8
:1007500000340034003400340034003400340034F9
:1007600000340034003400340034003400340034E9
:1007700000340934023429340034013401340034A3
:10078000C0343234093404340034003402340334C5
:10079000003400340034093421341134013400347D
:1007A000013422344E3400340734053481340334A8
:1007B0004034003401340734053401340334403408
:1007C0000034013412340134003402340034003473
:1007D00000340834D83404345E3400340134003436
:1007E0000134023400340134043403340934043451
:1007F000210012113D009301900198010E30F40088
:100800009930F300F5017508031D072C092C1B2CEA
:100810001B2C730886007408870081010130F307E0
:100820000030F43D0130F1007108F5077508031D33
:100830001A2C092C1B2C16303D0091009F3097007C
:100840007B309200F60108307602031C282C292CFC
:100850002B2C482C482C7608F1000130F135FF3E56
:10086000031D2E2C7135203E860087010030C03FCD
:100870000030C13F0030C23F0030C33F0130F100C3
:100880007108F60708307602031C472C482C2B2CE5
:100890003D000E1796010E120E13592CF730F10081
:1008A000710890052000EC012100AB01AC01AD0105
:1008B000592C3D0090195D2C5E2C4E2C5F2C013084
:1008C000F10071082100BF000130F1007108C00083
:1008D000BC01BD01BB01F60102307602031C712C84
:1008E000722C742C932C932C7608663E860087011C
:1008F00081017608B73E8600870181017608B33E04
:100900008600870181017608B53E86008701810156
:100910000130F1007108F60702307602031C912CB9
:10092000922C742C932C2830F10071082000E600E2
:1009300016303D0098004030F1000030F2007108A0
:100940002000A2007208A3000830F1007108A10085
:100950008430F1007108A0002100C7012000E801E7
:1009600008002000690A860087010108F300730867
:10097000F6007608F300F401740821002D02031D2F
:10098000C32C73082C020318C62CC72CCC2C2C08A3
:10099000F3007308F600CC2C0330A93E86008701D3
:1009A0007608F300F401F309F409F30A0319F40AD1
:1009B000403F7307AC00413F743DAD00F501F42C9E
:1009C0007508483E860087010108F3002908860063
:1009D0008701730881000130F3007308A907013013
:1009E000F3007308F507F42C76087502031CF92C44
:1009F000FA2CE02CFB2C0330A93E86008701160060
:100A000001040319042D052D312D0830F3007C0A53
:100A100086008701730881004830F3000030F4003D
:100A20007C08023E860087017308C03F7408C13FFE
:100A30002000690886008701011B1F2D202D282D0D
:100A4000C830F3007C0886008701730881005F2DA1
:100A50008830F3007C0886008701730881005F2DD1
:100A60005F2D0830F3007C0A86008701730881003F
:100A70004030F3000030F4007C08023E860087011D
:100A80007308C03F7408C13F8430F3007C088600BF
:100A900087017308810021002E08031D502D542D5D
:100AA0002E088531522D542DAB13BE08031D592D30
:100AB0005A2D5F2D8D31232584315F2D5F2D080048
:100AC000210030082F04031D662D672D6B2D10307B
:100AD000AF002730B0000130AF020030B03B3D0026
:100AE0008E1C732D742D912D210030082F04031DB1
:100AF0007A2D7B2D032E003022000E1D0130F100D7
:100B0000F10DF10D0E087106FB3971068E000E1DF8
:100B10008A2D8B2D8D2D8E15032E8E11032E032ED7
:100B2000032E2000E808031D962D972D9B2D2200F3
:100B30000E118E11032E20006808013A031DA12D0D
:100B4000A22DA62D22000E158E15032E200068085A
:100B5000023A031DAC2DAD2DB12D22000E158E11C4
:100B6000032E20006808043A031DB72DB82DBC2DB4
:100B700022000E118E15032E20006808103A031D66
:100B8000C22DC32DD92D210030082F04031DC92DDE
:100B9000CA2D032E003022000E1D0130F100F10D90
:100BA000F10D0E087106FB3971068E008E11032EB1
:100BB000032E20006808203A031DDF2DE02D032EB0
:100BC000210030082F04031DE62DE72D032E0030F1
:100BD00022000E1D0130F100F10DF10D0E0871061D
:100BE000FB3971068E000E1DF62DF72DF92D8E1195
:100BF000032E8E15032E032E032E032E032E032EFB
:100C0000032E032E032E0800200040081F39013A4E
:100C100003190B2E0C2E0E2EA02EA02E4408031D01
:100C2000122E142EA02EA02E4108063A031D192EB6
:100C30001A2E4D2E412E412E21004708013A031D48
:100C4000222E232E4D2ECB302000EA008330EB00E5
:100C50000930ED000030EE00C030F1007108EC000A
:100C60004D2E4D2E0930EA008330EB004E30ED0062
:100C70000030EE00C030F1007108EC004D2E4D2E1A
:100C80004D2E4308213A03191C2E033A0319322E24
:100C9000013A03194D2E4D2E4D2E2000400E890C89
:100CA0000339013A0319552E562E8B2EA02EA02E55
:100CB0008B2EA02EA02ECA30EA000030EB000130AF
:100CC000ED000030EE00C130F1007108EC00A02E04
:100CD0008030F1007108EC004308F1007108210038
:100CE000CA00A02EC9302000EA000030EB0001301D
:100CF000ED000030EE008130F1007108EC00A02E14
:100D00008030F1007108EC004208F1007108210008
:100D1000C900A02EA02E20004108013A0319A02EE0
:100D2000033A03195B2E013A0319722E0A3A03198A
:100D3000A02E033A0319682E013A0319802EA02E23
:100D400008000830F1007108F300003020006E0246
:100D5000083003196D020318AE2EAF2EC92E6D0890
:100D6000F1007108F3002100C608031DB82EB92E4A
:100D7000BC2EC601C60AC92E4608013A031DC12E63
:100D8000C22EC92E0230F1007108C600C92EC92E2C
:100D9000C92E03306A3E860087017308F100F20114
:100DA000F109F209F10A0319F20A403F7107200024
:100DB000ED00413F723DEE007308F100660A8600C7
:100DC0008701710881004830F10071082100C500D9
:100DD00020006C18EC2EED2E2B2F092F092F200050
:100DE0006A0884006B0885000008F10021004508AE
:100DF000860087017108810001302000EA07003079
:100E0000EB3D0130F10071082100C5070130F3020C
:100E1000092FF308031D0D2F0E2FEF2E322F322F27
:100E20002B2F20006A0884006B0885000008F10061
:100E300021004508860087017108810001302000EB
:100E4000EA070030EB3D0130F10071082100C507D1
:100E50000130F3022B2FF308031D2F2F302F112FFA
:100E6000322F322F08002000EC170E30DA009930B4
:100E7000D900DB015B08031D3E2F402F522F522F5C
:100E8000590886005A08870081010130D9070030CF
:100E9000DA3D0130D8005808DB075B08031D512FED
:100EA000402F522F0030F1000030F2002030F300CC
:100EB0000030F40020308A31DA2287313D000E17ED
:100EC0002000DC0102305C02031C672F682F6A2FB0
:100ED0007F2F7F2F5C08B33E8600870181015C086D
:100EE000B53E8600870181010130D8005808DC0733
:100EF00002305C02031C7D2F7E2F6A2F7F2F003073
:100F0000F1000030F2000130F3000030F400C8308E
:100F10008A31DA2287313D000E1328302000D800B4
:100F20005808E6002030D8005808E9006908D800C1
:100F30005808FC004208D80058082100C700C7081C
:100F4000031DA32FA42FAA2F10302000D80058086B
:100F5000E800C02F01302000D3000030D400C7309B
:100F6000D8005808D5000130D6000030D7008B31AA
:100F7000D323873120302000D8005808E800C02F44
:100F8000080021004208023A031DC72FC82FCC2FAA
:100F90008431B1248731F02FC201B908031DD12F4C
:100FA000D22FED2F0830F7007C0A860087017708E2
:100FB00081004030F7000030F8007C08023E8600D7
:100FC00087017708C03F7808C13F8C30F7007C0864
:100FD0008600870177088100F02FB901F02FF02FEC
:100FE00008008A315A228731F52F80310D20873150
:100FF0008A317A228731F52FF52F80310B280800AE
:101000008231BC2A8231C12A8231F52A8231C12A39
:101010008231F52A8231A42A8231AA2A8231DA2A3F
:101020008231B22A8231AE2A8231C52A8231D02A57
:041030008231F52AEA
:10149E000800863104268A3108006400800101317B
:1014AE00890B552A003423008C0110308D008E01DB
:1014BE008A318F228A318331F8238A310800FC0168
:1014CE0066308400003085000A308A3154228A3119
:1014DE00A93084000030850022308A3154228A31AE
:1014EE0020008731F12F853160258A312030200090
:1014FE006802031C832A842A8E2A3D008E1C882AA9
:10150E00892A8B2A8E2A8E2A8D318E258A310800C1
:10151E00F030F100710822008E05F030F1007108F4
:10152E0021008E05003020008C1901302100E800CA
:10153E00003020008C1901302100E900C4010800A0
:10154E002100BB0174302000D3000030D400D5013F
:10155E000030D6000030D7008B31D3238A313D00C6
:10156E008E101211FB302000D80058083D00900557
:10157E0008003D001215EF302000D80058083D003D
:10158E0090058E142100BB01BB0A75302000D300DC
:10159E000030D400D5010030D6000030D7008B319A
:1015AE00D3238A310800F6007608F5007508F70097
:1015BE00EC2A7108F500770886008701750881000E
:1015CE000130F5007508F707EC2A0130F302003000
:1015DE00F43BFF307406031DF62AFF307306031D1D
:1015EE00F92AFA2AE02AFB2A08003D00181C002BD3
:1015FE00012B1F2B20006908860087010108803A05
:10160E00031D0A2B0B2B1C2B660886008701010875
:10161E00843A031D132B142B1C2B8C30F1006908FC
:10162E0086008701710881001C2B3D0018101F2BAE
:10163E00DF30F1007108900508002000D200781DFF
:10164E00292B2A2B302BF10152088B3190238B3111
:10165E00302BF81C332B342B3C2BF101F10A2000DC
:10166E0052088B3190238B313C2B20005208983E30
:10167E00F900FA010E30FA3D7908D0007A08D1004F
:10168E007808F90050088600510887007908810013
:10169E0008002100C601BE01BC01BD01B901C20195
:1016AE007F302000DF006608860087015F08810515
:1016BE000430DF005F08E6067F30DF006608860034
:1016CE0087015F0881050430DF005F08E6067F3082
:1016DE00DF007C08860087015F088105EC01ED01C3
:1016EE00EE012100AB01AC01AD01823198228B31AC
:1016FE0003302000D3000030D400D5010030D600D6
:10170E000030D7008B31D3238B318F3175278B313E
:10171E000800F6002030F2007208F7007108F2009F
:10172E000130F235890B982B7608F3000130F33532
:10173E00FF3E031D9E2B73357207F4000130F43506
:10174E00FF3E031DA62B7435F5007508F7077708C5
:10175E00860087018113F108031DB62BB72BC02B12
:10176E007708F2007608B73E86008701720881007E
:10177E00C92B7708F2007608663E8600870172084C
:10178E008100C92B77088600870101137708043E74
:10179E008600870101170800F42B1C2C80310320D2
:1017AE008B311C2C8731FF278B311C2C8231FF2271
:1017BE008B311C2C8231F6228B311C2C8A314F221C
:1017CE008B311C2C8A3150228B311C2C8031022003
:1017DE008B311C2C1C2C1C2C1C2C20005408003A69
:1017EE000319FD2B7F3A0319172C1C2C5308013AB1
:1017FE000319E12B033A0319E52B013A0319E92BDF
:10180E00063A03191C2C773A03191C2C013A0319BA
:10181E00D52B073A0319DD2B013A0319D92B1C2CB2
:10182E005308FF3A0319ED2B1C2C08002100BC01B4
:10183E00BD014208023A031D252C262C412C0830EE
:10184E00F4007C0A86008701740881004830F40099
:10185E000030F5007C08023E860087017408C03F08
:10186E007508C13FC830F4007C08860087017408F3
:10187E0081006B2C20006E084702031D482C6D085A
:10188E00460203184B2C4C2C532C4708EE01EE0746
:10189E004608ED01ED07532C8631A1268C314830D8
:1018AE00F4000030F50020006608023E8600870135
:1018BE007408C03F7508C13FC830F4006608860042
:1018CE008701740881006B2C0800F6007108031D57
:1018DE00712C7A2C7608663E860087010108F4008A
:1018EE007408F700832C7608B73E8600870101083E
:1018FE00F4007408F700832CF708031D872C882C3E
:10190E008B2C0030C42CC42C7208F4000030F5006F
:10191E007708023E860087017408C03F7508C13FF4
:10192E007308F400770A860087017408810040303E
:10193E00F400770886008701740881058830F4006A
:10194E00770886008701740881047108031DB02C86
:10195E00B92C0430F4007608663E860087017408C0
:10196E008106C22C0430F4007608B73E860087014B
:10197E0074088106C22C7708C42C08002000C80108
:10198E00C901072DEC174814CC2C21003A08013A56
:10199E00031DD22CD32C132D2000C814132D132D60
:1019AE00EC17132DEC17C41BDD2CDE2CE82C440891
:1019BE000F39B73E860087010108F1007108F20069
:1019CE00F22C44080F39663E860087010108F100AB
:1019DE007108F200F22C720886008701811FF82C24
:1019EE00F92C132D720886008701011DFF2C002D86
:1019FE00132D0130F1007108C800132D132D132D76
:101A0E0040081F39003A0319C92C013A0319D72C83
:101A1E00033A0319D92C132D2000EC1F172D182D66
:101A2E00222D4830EA000030EB006C140230F10039
:101A3E007108ED00222D08002100BF08031D282D7E
:101A4E00292D8D2D0130F1007108BF00C008031D36
:101A5E00312D322D8D2D0130F1007108C00042085C
:101A6E00023A031D3B2D3C2D492D2000660A8600AF
:101A7E0087018101C830F100660886008701710870
:101A8E0081008D2D21004208013A031D4F2D502D4E
:101A9E008D2DB9010830F1002000690A86008701FA
:101AAE00710881004030F1000030F2006908023EFA
:101ABE00860087017108C03F7208C13F8430F10073
:101ACE00690886008701710881002100B901B90AF1
:101ADE000830F1007C0A86008701710881004030D1
:101AEE00F1000030F2007C08023E8600870171088A
:101AFE00C03F7208C13F8030F1007C08860087012C
:101B0E00710881008D2D8D2D8D2D8D2D08002100BC
:101B1E004408031D932DA12D440886008701010D55
:101B2E00010D0139F800F90178082000D00079087C
:101B3E00D100A52D2000D001D101A52D51085004B2
:101B4E00031DAA2DAB2D022E8C19AE2DAF2DD62D29
:101B5E002100A01420102011A0112012A012201379
:101B6E00A0132110A1102111A11121122208F03968
:101B7E000238A200A301A401F101F10AA030F8007D
:101B8E007808F2000930F9007908F30001308C3141
:101B9E006C248D31FA007A082100C400022E210037
:101BAE00A001A1010830F8007808A2008030F800EA
:101BBE007808A3008030F8007808A4008030F80080
:101BCE007808A5008030F8007808A600F101F10A27
:101BDE00A030F8007808F2000930F9007908F30017
:101BEE0001308C316C248D31FA007A082100C4004A
:101BFE00022E022E022E08002000660886008701A3
:101C0E000030011B0130F6000430F4007408E606C3
:101C1E006808083A031D142E152E282E42083D0082
:101C2E0096001608031D1C2E222E1030F400740888
:101C3E002000E800282E0430F40074082000E8008C
:101C4E00282E21004208013A031D2E2E2F2E682E1B
:101C5E004830F4000030F50020006608023E860091
:101C6E0087017408C03F7508C13F8631A1268E31A9
:101C7E0021004608023A031D452E462E4F2E843073
:101C8E00F400200066088600870174088100782E13
:101C9E00F608031D532E542E5D2EC830F40020007E
:101CAE0066088600870174088100782E8830F4005B
:101CBE00200066088600870174088100782E782E31
:101CCE00782EAB1F6B2E6C2E762E2E08031D702ECB
:101CDE00742E2E088E31722E742EAB13762EC201F8
:101CEE00782E080020004008803A031D7F2E802E9B
:101CFE00F52EC030F1007108EC00E92EE230EA005A
:101D0E008330EB001230ED000030EE00F52E42086D
:101D1E00F100F2010130F135F20D890B922E0730F0
:101D2E00710784008330723D8500003FEA00013F59
:101D3E00EB006B08F2006A08F100023071078400B4
:101D4E0072080318720A85000008F3007308ED008C
:101D5E006B08F2006A08F100033071078400720804
:101D6E000318720A85000008F3007308EE00F52EC2
:101D7E00033042020318C42EC52EE32E4208F10092
:101D8E00F2010130F135F20D890BC92E01307107C8
:101D9E0084008330723D8500003FEA00013FEB0076
:101DAE006A0884006B0885000008F100F2017108D2
:101DBE00ED007208EE00F52EEC01F52EF52EEC017D
:101DCE00F52EF52E4308013A0319852E033A031911
:101DDE008E2E013A0319BF2EE62EF52E08002D3059
:101DEE002000E00060082100C10020006F08FD39CE
:101DFE00031D022F032F652F6F0889363F39E00030
:101E0E000130E035FF3E031D082F6035203EE10016
:101E1E006108E9006908E0006008FC000430E00099
:101E2E006008FC06690886008701010C890C0F39D1
:101E3E000D3A031D232F242F602FE201083062027A
:101E4E00031C2A2F2B2F2D2F502F502F6908023EA7
:101E5E00860087010108860087010108E0006208FC
:101E6E00403E86008701600881006908023E8600B8
:101E7E0087010130810741310318810A0130E000EA
:101E8E006008E20708306202031C4E2F4F2F2D2FE1
:101E9E00502F4030E0000030E1006908023E86001D
:101EAE0087016008C03F6108C13F8B3150238E31DE
:101EBE00742F8731C1278E31742F742FFD3020007F
:101ECE006F05E0006008043A031D6E2F6F2F742F0C
:101EDE008E3103268E31742F742F08003D000E12A2
:101EEE002000EC1B7B2F7C2FB62F2100AB1F802FE9
:101EFE00812F922F0230F6007608C200BD08031D16
:101F0E00892F8A2F8E2F8C311D248F318E2F2100F9
:101F1E00C001BF01FF2F0830F6007C0A8600870142
:101F2E00760881004030F6000030F7007C08023E53
:101F3E00860087017608C03F7708C13F8C30F600D7
:101F4E007C0886008701760881008430F600200028
:101F5E0066088600870176088100FF2FFF2FC01FBD
:101F6E00B92FBA2FD32F2100C201C20ABC08031DFC
:101F7E00C12FC22FC62F8C311D248F31C62F2100A9
:101F8E00C001BF01BE08031DCD2FCE2FFF2F8D31F7
:101F9E0023258F31FF2FFF2F0230F6007608210008
:101FAE00C2000830F6007C0A8600870176088100A0
:101FBE004030F6000030F7007C08023E86008701B4
:101FCE007608C03F7708C13F8430F6007C08860053
:101FDE00870176088100C001BF01BE08031DF82FDE
:101FEE00F92FFF2F8D3123258F31FF2FFF2FFF2F3D
:021FFE000800D9
:020000040001F9
:04000E0082CF4FDF6F
:00000001FF
