:1000000080310B2808000800803120007F08F000B4
:100010007008FF0009008A31792A16283D008E01F8
:1000200092012000E80112115F295F292000E808F1
:10003000031D1B281C282F283D008E01920116301D
:1000400091009F3097007B30920027288E158E1DDF
:100050002A282B2826282000E801E80A2F286808EB
:10006000013A031D3428352845283D008E1A3928C9
:100070003A284528900192011214121602302000ED
:10008000E3006308E800452845283D00101D492885
:100090004A285828121D4D284E285828FB30200089
:1000A000E30063083D0090058A31BA228031582868
:1000B0003D008E1C5C285D286028200012115F29FD
:1000C000101C632864287628121C67286828762864
:1000D0008331F423803104302000E3006308E8001A
:1000E000FE30E30063083D0090057628101E792855
:1000F0007A288828121E7D287E2888288A31D322D3
:100100008031EF302000E30063083D00900588282F
:10011000101F8B288C28B628121F8F2890289E2805
:1001200073302000D3000030D400D5010130D60058
:100130000030D7008B31D32380319E28BF30200080
:10014000E30063083D00900521003F08031DA92836
:10015000AC280130BF02AC28BF08031DB028B1286D
:10016000B6288D3123258031B628B6283D00901E53
:10017000BA28BB28C328921EBE28BF28C3288B31AB
:100180000F238031C3283D00901CC728C828DC28D5
:10019000921CCB28CC28DC28FF302000D3007F30F5
:1001A000D400D5010130D6000030D7008B31D323E5
:1001B00080313D009301DC280430200068020318E0
:1001C000E228E328E52812115F293D00921DE92865
:1001D000EA285D292000E50104306502031CF128AE
:1001E000F228F4285D295D293D00901DF828F928A2
:1001F0005D290F082000E3006308EF006F0CE300A7
:10020000E30C630C0F39E40064082100C100F730EF
:100210002000E30063083D00900520006F191129BC
:100220001229232921004108B33E860087010108D5
:1002300001392000E3000130E30601086306FE39BE
:1002400063068100342921004108B13E8600870100
:10025000010801392000E3000130E30601086306CC
:10026000FE396306810034292100C108031D3929A4
:100270003A293E298E31F6268031512972302000EC
:10028000D3000030D4006F30E3006308D5000030A5
:10029000D6000030D7008B31D3238031512951292A
:1002A0005D2901302000E3006308E50704306502A2
:1002B000031C5B295C29F4285D2920001211080029
:1002C00020004208013A031D662967297D2940085C
:1002D0001F390038031D6D296E297D29EC1741084F
:1002E000033A031D7429752979292100B801B80A38
:1002F0007D292100B8017D297D2920004208031DA8
:1003000082298329972A40081F39023A031D892927
:100310008A29972A44080F39003A0319902991290C
:10032000972A44080F39D800023058020318992937
:100330009A29972A6808203A031D9F29A029972AFD
:10034000EC17C41BA429A529B82944080F39B53EC8
:10035000860087010108D8005808DD0044080F39DD
:10036000B33E860087010108D8005808DC00CB297D
:1003700044080F39663E860087010108D8005808F6
:10038000DD0044080F39B13E860087010108D8001E
:100390005808DC00CB295C18CE29CF29D429FB30A2
:1003A000D8005808DD05D5295D15C41BD829D929E1
:1003B000E3295D08D80044080F39B53E860087015F
:1003C00058088100ED295D08D80044080F39663EC1
:1003D0008600870158088100ED294108033A031D72
:1003E000F229F329142A5D0886008701811FF92963
:1003F000FA290C2AC41BFD29FE29052A44080F39B5
:10040000B33E8600870181140C2A44080F39B13E9F
:100410008600870181140C2A8430D8005D0886008C
:10042000870158088104972A0430D8005808DD064F
:100430005D0886008701811F1E2A1F2A3A2A7F3005
:10044000D8005D0886008701580881055D08860090
:10045000870101170530D3000030D4005D08D800B3
:100460005808D5000130D6000030D7008B31D32397
:100470008131402A20005D08860087010117402A4B
:1004800004302000D8005808DD06DC18482A492A24
:10049000502A5D0886008701811F4F2A502A782A3A
:1004A000C41B532A542A5B2A44080F39B33E8600E2
:1004B00087018110612A44080F39B13E8600870107
:1004C00081103B30D8005D088600870158088105FF
:1004D0000530D3000030D4005D08D8005808D5009E
:1004E0000130D6000030D7008B31D3238131812AEF
:1004F0003B302000D8005D08860087015808810540
:10050000812A200044080F39983ED800D9010E30C6
:10051000D93D5808DA005908DB00FE30D8005A08E7
:1005200086005B08870058088105972A972A0800EB
:100530002000400E890C0339003A0319A02AA12A91
:10054000EA2AF52AF52AEA2AEC170830DE005E08C6
:10055000E800F52A8E3179268231F52A87312F2756
:100560008231F52AC5302000EA000030EB006C141F
:10057000ED01ED0AEC17F52A8C31C5248231F52AFC
:10058000C12A813160218231F52A20004408C63E0B
:10059000EA000030EB006C14ED01ED0AEC17F52ACF
:1005A000EC174208DE004408C63E860087015E085C
:1005B0008100F52A0230D3000030D400D50100308C
:1005C000D6000030D7008B31D3238231F52AF52AAB
:1005D000F52AF52A2000410884000D300402031892
:1005E000F52A88310435003E820008001E30FB00E9
:1005F0007B08F80001308B31372382310800080076
:100600000034F03483345334833487348334B53442
:1006100083340534013409340534A13401341534EC
:100620000034253401343534003445340134753414
:10063000013495340D340534093419340134293426
:100640000D3481340234953403348134013405345B
:1006500001342534073446343B34013475340434D2
:1006600095340134653414340934393481344234D6
:100670006534003495340134813401342634FF3438
:1006800000344634FF340034093430340934313412
:10069000093432340934353475340834953404342B
:1006A00081340234C034343403344D34003469347A
:1006B000003463340034723400346F3400346334F3
:1006C0000034683400346934003470340034203429
:1006D00000345434003465340034633400346834F6
:1006E00000346E3400346F3400346C3400346F34B2
:1006F0000034673400347934003420340034493411
:1007000000346E340034633400342E3400342E341C
:1007100003344A3400346F34003479340034733491
:1007200000347434003469340034633400346B347E
:1007300000342034003444340034653400346D34E3
:1007400000346F340034003400340034003400349A
:1007500000340034003400340034003400340034F9
:1007600000340034003400340034093402342934B5
:100770000034013401340034C034323409340434D8
:1007800000340034023403340034003400340934BB
:100790002134113401340034013422344A34003419
:1007A00007340534813403344034003401340734D1
:1007B000053401340334403400340134123401343C
:1007C000003402340034003400340834D8340434A3
:1007D0005E34003401340034013402340034013416
:1007E0000434033409340434210012113D00930110
:1007F000900198010E30F4009930F300F50175086E
:10080000031D032C052C172C172C73088600740865
:10081000870081010130F3070030F43D0130F10021
:100820007108F5077508031D162C052C172C1630BA
:100830003D0091009F3097007B309200F601083018
:100840007602031C242C252C272C442C442C7608BF
:10085000F1000130F135FF3E031D2A2C7135203E99
:10086000860087010030C03F0030C13F0030C23FEA
:100870000030C33F0130F1007108F60708307602FE
:10088000031C432C442C272C3D000E1796010E12FE
:100890000E13552CF730F100710890052000EC0183
:1008A0002100A901AA01AB01552C3D009019592C3A
:1008B0005A2C4A2C5B2C0130F10071082100BD003C
:1008C0000130F1007108BE00BA01BB01B901F601A7
:1008D00002307602031C6D2C6E2C702C8F2C8F2C0A
:1008E0007608663E8600870181017608B53E86005F
:1008F000870181017608B13E860087018101760873
:10090000B33E8600870181010130F1007108F607CE
:1009100002307602031C8D2C8E2C702C8F2C2830EC
:10092000F10071082000E60016303D0098004030CC
:10093000F1000030F20071082000A2007208A3004C
:100940000830F1007108A1008430F1007108A000A6
:100950002100C5012000E80108002000690A860086
:1009600087010108F3007308F6007608F300F4012C
:10097000740821002B02031DBF2C73082A020318E0
:10098000C22CC32CC82C2A08F3007308F600C82C0C
:100990000330A73E860087017608F300F401F309CF
:1009A000F409F30A0319F40A403F7307AA00413F10
:1009B000743DAB00F501F02C7508483E86008701B8
:1009C0000108F300270886008701730881000130C1
:1009D000F3007308A7070130F3007308F507F02C44
:1009E00076087502031CF52CF62CDC2CF72C033052
:1009F000A73E86008701160001040319002D012D72
:100A00002D2D0830F3007C0A8600870173088100D1
:100A10004830F3000030F4007C08023E8600870175
:100A20007308C03F7408C13F200069088600870131
:100A3000011B1B2D1C2D242DC830F3007C088600C3
:100A40008701730881005B2D8830F3007C088600E5
:100A50008701730881005B2D5B2D0830F3007C0A51
:100A600086008701730881004030F3000030F400F5
:100A70007C08023E860087017308C03F7408C13FAE
:100A80008430F3007C088600870173088100210010
:100A90002C08031D4C2D502D2C0885314E2D502D2A
:100AA000A913BC08031D552D562D5B2D8D31232513
:100AB00084315B2D5B2D080021002E082D04031DC1
:100AC000622D632D672D1030AD002730AE00013050
:100AD000AD020030AE3B3D008E1C6F2D702D8D2D74
:100AE00021002E082D04031D762D772DFF2D0030BB
:100AF00022000E1D0130F100F10DF10D0E087106FE
:100B0000FB3971068E000E1D862D872D892D8E15C1
:100B1000FF2D8E11FF2DFF2DFF2D2000E808031D56
:100B2000922D932D972D22000E118E11FF2D200056
:100B30006808013A031D9D2D9E2DA22D22000E1541
:100B40008E15FF2D20006808023A031DA82DA92D3F
:100B5000AD2D22000E158E11FF2D20006808043ADD
:100B6000031DB32DB42DB82D22000E118E15FF2DAF
:100B700020006808103A031DBE2DBF2DD52D210081
:100B80002E082D04031DC52DC62DFF2D003022007B
:100B90000E1D0130F100F10DF10D0E087106FB394B
:100BA00071068E008E11FF2DFF2D20006808203A5F
:100BB000031DDB2DDC2DFF2D21002E082D04031D30
:100BC000E22DE32DFF2D003022000E1D0130F1003B
:100BD000F10DF10D0E087106FB3971068E000E1D28
:100BE000F22DF32DF52D8E11FF2D8E15FF2DFF2DDE
:100BF000FF2DFF2DFF2DFF2DFF2DFF2DFF2D0800B9
:100C0000200040081F39013A0319072E082E0A2E2A
:100C10009C2E9C2E4408031D0E2E102E9C2E9C2EC6
:100C20004108063A031D152E162E492E3D2E3D2E47
:100C300021004508013A031D1E2E1F2E492EC730E4
:100C40002000EA008330EB000930ED000030EE00B8
:100C5000C030F1007108EC00492E492E0930EA003D
:100C60008330EB004A30ED000030EE00C030F10080
:100C70007108EC00492E492E492E4308213A0319E8
:100C8000182E033A03192E2E013A0319492E492E24
:100C9000492E2000400E890C0339013A0319512EC8
:100CA000522E872E9C2E9C2E872E9C2E9C2EC8303A
:100CB000EA000030EB000130ED000030EE00C13002
:100CC000F1007108EC009C2E8030F1007108EC00FE
:100CD0004308F10071082100C8009C2EC730200095
:100CE000EA000030EB000130ED000030EE00813012
:100CF000F1007108EC009C2E8030F1007108EC00CE
:100D00004208F10071082100C7009C2E9C2E200093
:100D10004108013A03199C2E033A0319572E013A50
:100D200003196E2E0A3A03199C2E033A0319642EF6
:100D3000013A03197C2E9C2E08000830F10071083E
:100D4000F300003020006E02083003196D02031812
:100D5000AA2EAB2EC52E6D08F1007108F3002100FC
:100D6000C408031DB42EB52EB82EC401C40AC52E66
:100D70004408013A031DBD2EBE2EC52E0230F100DF
:100D80007108C400C52EC52EC52E03306A3E8600EC
:100D900087017308F100F201F109F209F10A031960
:100DA000F20A403F71072000ED00413F723DEE0026
:100DB0007308F100660A86008701710881004830D7
:100DC000F10071082100C30020006C18E82EE92E04
:100DD000272F052F052F20006A0884006B08850047
:100DE0000008F10021004308860087017108810096
:100DF00001302000EA070030EB3D0130F1007108BE
:100E00002100C3070130F302052FF308031D092F4A
:100E10000A2FEB2E2E2F2E2F272F20006A0884005A
:100E20006B0885000008F100210043088600870157
:100E30007108810001302000EA070030EB3D0130ED
:100E4000F10071082100C3070130F302272FF308D6
:100E5000031D2B2F2C2F0D2F2E2F2E2F080020009F
:100E6000EC170E30DA009930D900DB015B08031D66
:100E70003A2F3C2F4E2F4E2F590886005A088700D4
:100E800081010130D9070030DA3D0130D80058081F
:100E9000DB075B08031D4D2F3C2F4E2F0030F10068
:100EA0000030F2002030F3000030F40020308A31AE
:100EB000ED2287313D000E172000DC0102305C027C
:100EC000031C632F642F662F7B2F7B2F5C08B13EA2
:100ED0008600870181015C08B33E8600870181019D
:100EE0000130D8005808DC0702305C02031C792F5F
:100EF0007A2F662F7B2F0030F1000030F200013096
:100F0000F3000030F400C6308A31ED2287313D0015
:100F10000E1328302000D8005808E6002030D800F2
:100F20005808E9006908D8005808FC004208D800B1
:100F300058082100C500C508031D9F2FA02FA62F0C
:100F400010302000D8005808E800BC2F01302000E5
:100F5000D3000030D400C530D8005808D500013087
:100F6000D6000030D7008B31D323873120302000CA
:100F7000D8005808E800BC2F0800F6002030F20026
:100F80007208F7007108F2000130F235890BC52FA5
:100F90007608F3000130F335FF3E031DCB2F733588
:100FA0007207F4000130F435FF3E031DD32F743572
:100FB000F5007508F7077708860087018113F108A7
:100FC000031DE32FE42FED2F7708F2007608B53EDE
:100FD0008600870172088100F62F7708F2007608F4
:100FE000663E8600870172088100F62F770886002A
:100FF000870101137708043E860087010117080066
:101000008231BC2A8231C12A8231F52A8231C12A39
:101010008231F52A8231A42A8231AA2A8231DA2A3F
:101020008231B22A8231AE2A8231C52A8231D02A57
:041030008231F52AEA
:1014A60008000800863100268A31080064008001A1
:1014B6000131890B5A2A003423008C0110308D002B
:1014C6008E018A31A2228A318331F4238A310800BF
:1014D6008A315F228A316F2A80310D208A318A3122
:1014E6008D228A316F2A6F2A80310B28FC016630E3
:1014F6008400003085000A308A3159228A31A730AB
:1015060084000030850022308A3159228A31200039
:101516008A316B2A85315C258A31203020006802A9
:10152600031C962A972AA12A3D008E1C9B2A9C2AD8
:101536009E2AA12AA12A8D318E258A310800F030F3
:10154600F100710822008E05F030F10071082100CB
:101556008E05003020008C1901302100E800003093
:1015660020008C1901302100E900C2010800210089
:10157600B90174302000D3000030D400D50100300A
:10158600D6000030D7008B31D3238A313D008E1030
:101596001211FB302000D80058083D0090050800C5
:1015A6003D001215EF302000D80058083D00900588
:1015B6008E142100B901B90A75302000D30000301D
:1015C600D400D5010030D6000030D7008B31D323AC
:1015D6008A310800F6007608F5007508F700FF2A3C
:1015E6007108F500770886008701750881000130CB
:1015F600F5007508F707FF2A0130F3020030F43BC7
:10160600FF307406031D092BFF307306031D0C2BD8
:101616000D2BF32A0E2B08003D00181C132B142B40
:10162600322B20006908860087010108803A031DD5
:101636001D2B1E2B2F2B6608860087010108843A76
:10164600031D262B272B2F2B8C30F10069088600D3
:101656008701710881002F2B3D001810322BDF30D7
:10166600F1007108900508002000D200781D3C2B7F
:101676003D2B432BF10152088731BD278B31432B7C
:10168600F81C462B472B4F2BF101F10A200052087C
:101696008731BD278B314F2B20005208983EF90029
:1016A600FA010E30FA3D7908D0007A08D1007808A0
:1016B600F900500886005108870079088100080063
:1016C60021004008023A031D692B6A2B6E2B8431D8
:1016D600AD248B31922BC001B708031D732B742BDD
:1016E6008F2B0830F7007C0A860087017708810077
:1016F6004030F7000030F8007C08023E8600870183
:101706007708C03F7808C13F8C30F7007C08860018
:10171600870177088100922BB701922B922B080044
:101726002100C401BC01BA01BB01B701C0017F3071
:101736002000DF006608860087015F088105043007
:10174600DF005F08E6067F30DF0066088600870157
:101756005F0881050430DF005F08E6067F30DF00A2
:101766007C08860087015F088105EC01ED01EE012A
:101776002100A901AA01AB01823198228B310330E5
:101786002000D3000030D400D5010030D600003050
:10179600D7008B31D3238B318F3175278B310800DE
:1017A600F42B1C2C803102208B311C2C8231FF2221
:1017B6008B311C2C803103208B311C2C8231F6227C
:1017C6008B311C2C8A3153228B311C2C8A315522A9
:1017D6008B311C2C8A3154228B311C2C1C2C1C2C3A
:1017E6001C2C20005408003A0319FD2B7F3A0319DC
:1017F600172C1C2C5308013A0319E12B033A031941
:10180600E52B013A0319E92B063A03191C2C773A02
:1018160003191C2C013A0319D52B073A0319DD2BA2
:10182600013A0319D92B1C2C5308FF3A0319ED2B47
:101836001C2C08002100BA01BB014008023A031D16
:10184600252C262C412C0830F4007C0A86008701C2
:10185600740881004830F4000030F5007C08023E30
:10186600860087017408C03F7508C13FC830F40080
:101876007C0886008701740881006B2C20006E08A6
:101886004702031D482C6D08460203184B2C4C2CAE
:10189600532C4708EE01EE074608ED01ED07532CE1
:1018A60086319D268C314830F4000030F50020004A
:1018B6006608023E860087017408C03F7508C13F6E
:1018C600C830F400660886008701740881006B2C16
:1018D6000800F6007108031D712C7A2C7608663E06
:1018E600860087010108F4007408F700832C760847
:1018F600B53E860087010108F4007408F700832CC2
:10190600F708031D872C882C8B2C0030C42CC42C84
:101916007208F4000030F5007708023E8600870161
:101926007408C03F7508C13F7308F400770A860043
:101936008701740881004030F4007708860087012B
:10194600740881058830F4007708860087017408DA
:1019560081047108031DB02CB92C0430F4007608FC
:10196600663E8600870174088106C22C0430F400A6
:101976007608B53E8600870174088106C22C770872
:10198600C42C08002000C801C901072DEC17481413
:10199600CC2C21003808013A031DD22CD32C132D50
:1019A6002000C814132D132DEC17132DEC17C41B90
:1019B600DD2CDE2CE82C44080F39B53E8600870165
:1019C6000108F1007108F200F22C44080F39663E56
:1019D600860087010108F1007108F200F22C7208F6
:1019E60086008701811FF82CF92C132D72088600BA
:1019F6008701011DFF2C002D132D0130F100710808
:101A0600C800132D132D132D40081F39003A031952
:101A1600C92C013A0319D72C033A0319D92C132DD3
:101A26002000EC1F172D182D222D4830EA0000301B
:101A3600EB006C140230F1007108ED00222D080055
:101A46002100BD08031D282D292D8D2D0130F10003
:101A56007108BD00BE08031D312D322D8D2D0130BC
:101A6600F1007108BE004008023A031D3B2D3C2DD3
:101A7600492D2000660A860087018101C830F100E1
:101A8600660886008701710881008D2D21004008B7
:101A9600013A031D4F2D502D8D2DB7010830F10051
:101AA6002000690A86008701710881004030F10034
:101AB6000030F2006908023E860087017108C03FC7
:101AC6007208C13F8430F1006908860087017108F9
:101AD60081002100B701B70A0830F1007C0A8600B0
:101AE6008701710881004030F1000030F2007C0867
:101AF600023E860087017108C03F7208C13F8030F0
:101B0600F1007C0886008701710881008D2D8D2DDE
:101B16008D2D8D2D080021004208031D932DA12D2A
:101B2600420886008701010D010D0139F800F9010F
:101B360078082000D0007908D100A52D2000D0011A
:101B4600D101A52D51085004031DAA2DAB2D022E3F
:101B56008C19AE2DAF2DD62D2100A01420102011EA
:101B6600A0112012A0122013A0132110A1102111E0
:101B7600A11121122208F0390238A200A301A40102
:101B8600F101F10AA030F8007808F2000730F900F8
:101B96007908F30001308C316C248D31FA007A0813
:101BA6002100C200022E2100A001A1010830F80088
:101BB6007808A2008030F8007808A3008030F8008A
:101BC6007808A4008030F8007808A5008030F80076
:101BD6007808A600F101F10AA030F8007808F200B2
:101BE6000730F9007908F30001308C316C248D310F
:101BF600FA007A082100C200022E022E022E0800E8
:101C060020006608860087010030011B0130F600BF
:101C16000430F4007408E6066808083A031D142E1A
:101C2600152E282E42083D0096001608031D1C2E70
:101C3600222E1030F40074082000E800282E04300C
:101C4600F40074082000E800282E21004008013A1C
:101C5600031D2E2E2F2E682E4830F4000030F5007E
:101C660020006608023E860087017408C03F75089A
:101C7600C13F86319D268E3121004408023A031D5C
:101C8600452E462E4F2E8430F4002000660886002E
:101C9600870174088100782EF608031D532E542EF2
:101CA6005D2EC830F400200066088600870174089F
:101CB6008100782E8830F4002000660886008701AF
:101CC60074088100782E782E782EA91F6B2E6C2E24
:101CD600762E2C08031D702E742E2C088E31722E33
:101CE600742EA913762EC001782E08002000400815
:101CF600803A031D7F2E802EF52EC030F10071082C
:101D0600EC00E92EDE30EA008330EB001230ED0005
:101D16000030EE00F52E4208F100F2010130F135F7
:101D2600F20D890B922E0730710784008330723DC5
:101D36008500003FEA00013FEB006B08F2006A08ED
:101D4600F10002307107840072080318720A8500D8
:101D56000008F3007308ED006B08F2006A08F10052
:101D660003307107840072080318720A85000008A0
:101D7600F3007308EE00F52E033042020318C42E5A
:101D8600C52EE32E4208F100F2010130F135F20DC5
:101D9600890BC92E0130710784008330723D85009E
:101DA600003FEA00013FEB006A0884006B088500EB
:101DB6000008F100F2017108ED007208EE00F52E40
:101DC600EC01F52EF52EEC01F52EF52E4308013A21
:101DD6000319852E033A03198E2E013A0319BF2ED5
:101DE600E62EF52E08002D302000E00060082100C8
:101DF600BF0020006F08FD39031D022F032F652F3A
:101E06006F0889363F39E0000130E035FF3E031D9B
:101E1600082F6035203EE1006108E9006908E0000E
:101E26006008FC000430E0006008FC0669088600D3
:101E36008701010C890C0F390D3A031D232F242F1E
:101E4600602FE20108306202031C2A2F2B2F2D2F50
:101E5600502F502F6908023E860087010108860030
:101E660087010108E0006208403E8600870160089D
:101E760081006908023E86008701013081074131F1
:101E86000318810A0130E0006008E20708306202A8
:101E9600031C4E2F4F2F2D2F502F4030E0000030C7
:101EA600E1006908023E860087016008C03F6108BC
:101EB600C13F8B3193238E31742F8B3163238E3147
:101EC600742F742FFD3020006F05E0006008043A7F
:101ED600031D6E2F6F2F742F8E3103268E31742FB4
:101EE600742F08003D000E122000EC1B7B2F7C2F68
:101EF600B62F2100A91F802F812F922F0230F600C6
:101F06007608C000BB08031D892F8A2F8E2F8C31BF
:101F16001D248F318E2F2100BE01BD01FF2F0830F9
:101F2600F6007C0A86008701760881004030F600BC
:101F36000030F7007C08023E860087017608C03F25
:101F46007708C13F8C30F6007C088600870176084A
:101F560081008430F6002000660886008701760836
:101F66008100FF2FFF2FC01FB92FBA2FD32F2100BB
:101F7600C001C00ABA08031DC12FC22FC62F8C315B
:101F86001D248F31C62F2100BE01BD01BC08031DD3
:101F9600CD2FCE2FFF2F8D3123258F31FF2FFF2FF2
:101FA6000230F60076082100C0000830F6007C0AF0
:101FB60086008701760881004030F6000030F70081
:101FC6007C08023E860087017608C03F7708C13F3D
:101FD6008430F6007C088600870176088100BE0101
:101FE600BD01BC08031DF82FF92FFF2F8D312325C6
:0A1FF6008F31FF2FFF2FFF2F08008F
:020000040001F9
:04000E0082CF4FDF6F
:00000001FF
